:03000000020034C7
:0303B7000200033E
:030003000203BA3B
:1003BA00758149758200758300123BE5121A7E1217
:0903CA001A95758200758300226A
:0600470090030374FFF0BA
:1003D300AFF0AE83E582900304F0EEA3F0EFA3F059
:1003E300900304E0FDA3E0FEA3E0FF8D828E838FE4
:1003F300F0125A42AE82AF838E828F8322AFF0AE69
:1004030083E58290030CF0EEA3F0EFA3F0900307D3
:10041300E0FDA3E0FEA3E0FF900312EDF0EEA3F0F6
:10042300EFA3F090030CE0FDA3E0FEA3E0FF900335
:100433000FEDF0EEA3F0EFA3F0900312E0FDA3E0C5
:10044300FEA3E0FF90030FE0FAA3E0FBA3E0FC9020
:10045300030AE0F53AA3E0F53BA83AA93B153A7441
:10046300FFB53A02153BE84970030204918D828E71
:10047300838FF0125A5AF9A3AD82AE838A828B839B
:100483008CF0E91258EEA3AA82AB8302045C9003BA
:100493000FEAF0EBA3F0ECA3F090030FE0FDA3E071
:1004A300FEA3E0FF8D828E838FF022AFF0AE83E553
:1004B3008290031AF0EEA3F0EFA3F0900315E0FD92
:1004C300A3E0FEA3E0FF900318E0FBA3E0FC1BBB4B
:1004D300FF011C900320EB2DF0EC3EA3F0EFA3F003
:1004E30090031AE0FDA3E0FEA3E0FF90031DEDF0EF
:1004F300EEA3F0EFA3F0900320E0FDA3E0FEA3E062
:10050300FF90031DE0FAA3E0FBA3E0FC900318E0D7
:10051300F53AA3E0F53BA83AA93B153A74FFB53A7F
:1005230002153BE849700302054E8D828E838FF0DE
:10053300125A5AF91DBDFF011E8A828B838CF0E982
:100543001258EEA3AA82AB8302051990031DEAF0A9
:10055300EBA3F0ECA3F090031DE0FDA3E0FEA3E00A
:10056300FF8D828E838FF022AFF0AE83E5829003FE
:1005730025F0EEA3F0EFA3F0900323E0FEA3E0FF4A
:100583008E828F83121FB4AD82AE83AFF0900328A7
:10059300EDF0EEA3F0EFA3F0ED4E70030205DC9057
:1005A3000328E0FDA3E0FEA3E0FF900325E0FAA308
:1005B300E0FBA3E0FC900323E0F8A3E0F99003073A
:1005C300EAF0EBA3F0ECA3F090030AE8F0E9A3F060
:1005D3008D828E838FF0120400900328E0FDA3E048
:1005E300FEA3E0FF8D828E838FF022AFF0AE83E512
:1005F30082900330F0EEA3F0EFA3F0900330E0FD20
:10060300A3E0FEA3E0FF900333EDF0EEA3F0EFA32E
:10061300F090032BE0FDA3E0FEA3E0FF900336ED93
:10062300F0EEA3F0EFA3F0900333E0FDA3E0FEA30D
:10063300E0FF900336E0FAA3E0FBA3E0FC90032E77
:10064300E0F53AA3E0F53BA83AA93B153A74FFB5A8
:100653003A02153BE84970030206898D828E838F27
:10066300F0125A5AF9A3AD82AE838A828B838CF03F
:10067300125A5AF8A3AA82AB83E9B5000302064AC9
:1006830075820002068C75820122AFF0AE83E5828B
:1006930090033CF0EEA3F0EFA3F090033CE0FDA346
:1006A300E0FEA3E0FF900339E0FC90033AE0FAA3F5
:1006B300E0FB901204ECF0901205EAF0EBA3F08D4E
:1006C300828E838FF0125687AD82AE83AFF08D8218
:1006D3008E838FF022AFF0AE83E58290033FF0EE7E
:1006E300A3F0EFA3F090033FE0FDA3E0FEA3E0FF40
:1006F3008D828E838FF0125A5AFC7B000DBD000150
:100703000E8D828E838FF0125A5AFD7F008D077DE6
:1007130000ED2CFCEF3BFB8C828B8322AFF0AE838E
:10072300E582900343F0EEA3F0EFA3F0900342E0E1
:10073300FFBF0202800302078E900343E0FDA3E0A4
:10074300FEA3E0FF8D828E838FF0125A5AFC8C0138
:100753007A007B007C000DBD00010E8D828E838F9D
:10076300F0125A5AFD8D007D007E007F008E078DAA
:100773000688057800E829F9ED3AFAEE3BFBEF3CF1
:10078300FC89828A838BF0EC020914900342E0FF18
:10079300BF03028003020825900343E0FDA3E0FEAC
:1007A300A3E0FF8D828E838FF0125A5AFC8C3A7528
:1007B3003B00753C00753D0074012DF874003EFB51
:1007C3008F0488828B838CF0125A5AF87C007B004A
:1007D3007A008B028C0388047800E8253AF8EC351C
:1007E3003BFCEB353CFBEA353DFA74022DFD74000E
:1007F3003EFE8D828E838FF0125A5AFD8D017D004D
:100803007E007F008D0789067D007900E928F8EDD9
:100813003CFCEE3BFBEF3AFA88828C838BF0EA02D6
:100823000914900342E0FFBF040280030208F29020
:100833000343E0FDA3E0FEA3E0FF8D828E838FF0F0
:10084300125A5AFC8C3A753B00753C00753D007496
:10085300012DF874003EFB8F0488828B838CF01289
:100863005A5AF87C007B007A008B028C0388047848
:1008730000E8253AF53AEC353BF53BEB353CF53CE6
:10088300EA353DF53D74022DF974003EFB8F048972
:10089300828B838CF0125A5AF97C007B007A008C8D
:1008A3000289037C007900E9253AF9EC353BFCEB3E
:1008B300353CFBEA353DFA74032DFD74003EFE8D95
:1008C300828E838FF0125A5AFD8D007D007E007F49
:1008D30000880778007D007E00E829F9ED3CFCEEF6
:1008E3003BFBEF3AFA89828C838BF0EA020914907E
:1008F3000343E0FDA3E0FEA3E0FF8D828E838FF030
:10090300125A5AFD7F007E007C008D828F838EF009
:10091300EC22AF82AE83ADF0FC90034AEFF0EEA37E
:10092300F0EDA3F0ECA3F090034E7400F0900358A5
:10093300F0900362F0900346E0FDA3E0FEA3E0FF26
:100943008D828E838FF074001258EE900349E0FF7E
:10095300BF0A028003020CA690034AE0FCA3E0FD59
:10096300A3E0FEA3E0FF9011E97410F07427A3F055
:100973007400A3F0A3F08C828D838EF0EFC007C0C8
:1009830006C005C0041253E2A882A983AAF0FBD0D3
:1009930004D005D006D00790036CE8F0E9A3F090EB
:1009A30011F87410F07427A3F07400A3F0A3F08C73
:1009B300828D838EF0EFC007C006C005C0041255B8
:1009C3007CA882A983AAF0FBD004D005D006D00767
:1009D3009011E97410F07427A3F07400A3F0A3F04E
:1009E300888289838AF0EBC007C006C005C0041261
:1009F30053E2A882A983AAF0FBD004D005D006D085
:100A03000790036EE8F0E9A3F09011F87400F07416
:100A1300E1A3F074F5A3F07405A3F08C828D838EAB
:100A2300F0EF12557CAC82AD83AEF0FF900370EC17
:100A3300F0EDA3F0EC4D7003020A61900370E0FE49
:100A4300A3E0FF90120E7462F07403A3F07400A38A
:100A5300F0901211740AF08E828F8312580490035F
:100A63006EE0FEA3E0FFEE4F7003020A9390036E65
:100A7300E0FEA3E0FF90120E7458F07403A3F07429
:100A830000A3F0901211740AF08E828F831258041F
:100A930090036CE0FEA3E0FFEE4F7003020AC590E3
:100AA300036CE0FEA3E0FF90120E744EF07403A3F8
:100AB300F07400A3F0901211740AF08E828F8312E7
:100AC3005804900370E0FEA3E0FFEE4F7003020BA7
:100AD30074900346E0FDA3E0FEA3E0FF9011F274DF
:100AE30062F07403A3F07400A3F08D828E838FF001
:100AF3001255239003727400F0900346E0FDA3E0C7
:100B0300FEA3E0FF900372E0FC75825875830375C2
:100B1300F000C007C006C005C004125A42AA82AB47
:100B230083D004D005D006D0077404C39AFA7400A6
:100B33009BFB8C007900C3E89AE99B4003020B748A
:100B43008D018E028F03901214747AF0745AA3F0FD
:100B53007480A3F089828A838BF0C007C006C00526
:100B6300C004125880D004D005D006D0070C020B65
:100B73000C900346E0FDA3E0FEA3E0FF9012147483
:100B830058F07403A3F07400A3F08D828E838FF06A
:100B9300125880900370E0FEA3E0FFEE4F60030263
:100BA3000BB490036EE0FEA3E0FFEE4F7003020C64
:100BB300329003727400F0900346E0FDA3E0FEA3BD
:100BC300E0FF900372E0FC75824E75830375F000BD
:100BD300C007C006C005C004125A42AA82AB83D024
:100BE30004D005D006D0077404C39AFA74009BFBA3
:100BF3008C007900C3E89AE99B4003020C328D0113
:100C03008E028F03901214747AF0745AA3F07480D6
:100C1300A3F089828A838BF0C007C006C005C00495
:100C2300125880D004D005D006D0070C020BCA900E
:100C33000346E0FDA3E0FEA3E0FF901214744EF020
:100C43007403A3F07400A3F08D828E838FF0125887
:100C530080900370E0FEA3E0FFEE4F6003020E59A5
:100C630090036EE0FEA3E0FFEE4F6003020E599087
:100C7300036CE0FEA3E0FFEE4F6003020E59900306
:100C830046E0FDA3E0FEA3E0FF9011F2747AF07456
:100C93005AA3F07480A3F08D828E838FF0125523B4
:100CA300020E59900349E0FFBF10028003020E4D6C
:100CB30090034AE0FCA3E0FDA3E0FEA3E0FF8C0069
:100CC3008D017A007B0090036CE8F0E9A3F08E04B9
:100CD3008F0590036EECF0EDA3F0EC4D7003020D65
:100CE3000790036EE0FEA3E0FF90120E7458F074B9
:100CF30003A3F07400A3F09012117410F08E828F8E
:100D03008312580490036CE0FEA3E0FFEE4F7003E0
:100D1300020D3990036CE0FEA3E0FF90120E744EB7
:100D2300F07403A3F07400A3F09012117410F08E0A
:100D3300828F8312580490036EE0FEA3E0FFEE4F10
:100D43007003020DE8900346E0FDA3E0FEA3E0FF7D
:100D53009011F27458F07403A3F07400A3F08D8221
:100D63008E838FF01255239003727400F090034624
:100D7300E0FDA3E0FEA3E0FF900372E0FC75824E6A
:100D830075830375F000C007C006C005C004125A7E
:100D930042AA82AB83D004D005D006D0077404C323
:100DA3009AFA74009BFB8C007900C3E89AE99B4094
:100DB30003020DE88D018E028F03901214747AF0F2
:100DC300745AA3F07480A3F089828A838BF0C007DE
:100DD300C006C005C004125880D004D005D006D088
:100DE300070C020D80900346E0FDA3E0FEA3E0FFA5
:100DF300901214744EF07403A3F07400A3F08D8268
:100E03008E838FF012588090036EE0FEA3E0FFEE16
:100E13004F6003020E5990036CE0FEA3E0FFEE4F18
:100E23006003020E59900346E0FDA3E0FEA3E0FF3A
:100E33009011F2747AF0745AA3F07480A3F08D8247
:100E43008E838FF0125523020E597582007583002D
:100E530075F000020E6A900346E0FDA3E0FEA3E0F6
:100E6300FF8D828E838FF02222AF83E582900373FE
:100E7300F0EFA3F0900373E0FEA3E0FFEE4F6003F7
:100E8300020E9275820075830075F000020F2F9099
:100E93000373E0FEA3E0FF74062EFE74003FFF8E93
:100EA300828F83121FB4AD82AE83AFF0900375EDD2
:100EB300F0EEA3F0EFA3F0ED4E7003020F269003C4
:100EC30075E0FDA3E0FEA3E0FF8D828E838FF074B7
:100ED300001258EEA31258EEA31258EE74032DFA23
:100EE30074003EFB8F04900373E0F8A3E0F98A8259
:100EF3008B838CF0E81258EEA3E91258EE74052D9B
:100F0300FA74003EFB8F048A828B838CF074FF1289
:100F130058EE74062DFD74003EFE8D828E838FF095
:100F2300020F2F75820075830075F00022AFF0AEBB
:100F330083E582900378F0EEA3F0EFA3F0900378BB
:100F4300E0FDA3E0FEA3E0FFED4E6003020F587542
:100F53008205020FA0900378E0FDA3E0FEA3E0FF6B
:100F630074FF2DFD74FF3EFE8D828E838FF0125A27
:100F73005AFDBDFF03020F81758204020FA0900387
:100F830078E0FDA3E0FEA3E0FFED24FAFDEE34FFDD
:100F9300FE8D828E838FF012230075820022E582FC
:100FA30090037EF0E0FF90037BE0FCA3E0FDA3E071
:100FB300FE900383ECF0EDA3F0EEA3F090038674B0
:100FC30000F08F82120FFDAF828F8222E5829003A1
:100FD30082F0E0FF90037FE0FCA3E0FDA3E0FE903E
:100FE3000383ECF0EDA3F0EEA3F09003867401F01D
:100FF3008F82120FFDAF828F8222E582900387F0EA
:10100300900383E0FDA3E0FEA3E0FFED4E60030247
:10101300101B758205021140900387E0FF905A86EA
:10102300E493FEC3EF9E5003021048900383E0FD58
:10103300A3E0FEA3E0FF8D828E838FF0120F307545
:101043008203021140900383E0FDA3E0FEA3E0FFCF
:10105300ED24FAFDEE34FFFE8D828E838FF0125A5B
:101063005AFDA3125A5AFEA3125A5AFFED4E6003B9
:10107300021099900383E0FDA3E0FEA3E0FF74FF59
:101083002DFD74FF3EFE8D828E838FF0125A5AFD22
:10109300BDFF030210B3900383E0FDA3E0FEA3E0D2
:1010A300FF8D828E838FF0120F30758205021140FF
:1010B300900383E0FDA3E0FEA3E0FF74FF2DFD7426
:1010C300FF3EFE900387E0FC8D828E838FF0EC124F
:1010D30058EE900386E0FFBF0102800302110790E0
:1010E3000383E0FDA3E0FEA3E0FF9003AAEDF0EE8F
:1010F300A3F0EFA3F075820075830375F000121659
:1011030027021129900383E0FDA3E0FEA3E0FF90F3
:101113000399EDF0EEA3F0EFA3F07582007583035E
:1011230075F0001213B3900387E0FF9003C67400B9
:10113300F07480A3F08F8212196275820022E58217
:10114300900388F090038C7400F0A3F0A3F0900355
:101153008FF0A3F0A3F0900392A2AFE433F0C2AFF9
:10116300900300E0FDA3E0FEA3E0FF900389EDF010
:10117300EEA3F0EFA3F0900388E0FF900389E0FC77
:10118300A3E0FDA3E0FEEC4D700302123B90038944
:10119300E0FCA3E0FDA3E0FE74FF2CFC74FF3DFD27
:1011A3008C828D838EF0125A5AFCECB507028003B1
:1011B3000211DE90038FE0FCA3E0FDA3E0FEEC4D03
:1011C300600302123B900389E0FCA3E0FDA3E0FE71
:1011D30090038FECF0EDA3F0EEA3F090038FE0FC0F
:1011E300A3E0FDA3E0FEEC4D600302120690038929
:1011F300E0FCA3E0FDA3E0FE90038CECF0EDA3F094
:10120300EEA3F0900389E0FCA3E0FDA3E0FEEC2451
:10121300FAFCED34FFFD8C828D838EF0125A5AFC5A
:10122300A3125A5AFDA3125A5AFE900389ECF0ED09
:10123300A3F0EEA3F002117E900389E0FDA3E0FE8C
:10124300A3E0FFED4E7003021264900388E0FF9069
:1012530003C67400F07480A3F08F82121962021225
:1012630078900388E0FF9003C97400F07480A3F0C2
:101273008F821219C990038FE0FDA3E0FEA3E0FF64
:10128300ED4E70030212C290038FE0FDA3E0FEA3B4
:10129300E0FF90038CE0FAA3E0FBA3E0FC9003B033
:1012A300EDF0EEA3F0EFA3F09003B3EAF0EBA3F0BD
:1012B300ECA3F075820075830375F0001216B690E7
:1012C3000392E0FFEF24FF92AF90038FE0FDA3E0D2
:1012D300FEA3E0FF8D828E838FF022E5829003943C
:1012E300F0900398A2AFE433F0C2AF900300E0FDA7
:1012F300A3E0FEA3E0FF900395EDF0EEA3F0EFA3D0
:10130300F0900393E0FF900394E0FE900395E0FBDD
:10131300A3E0FCA3E0FDEB4C70030213979003954D
:10132300E0FBA3E0FCA3E0FD74FF2BFB74FF3CFC9C
:101333008B828C838DF0125A5AFBEBB50602800325
:10134300021362900395E0FBA3E0FCA3E0FD8B8214
:101353008C838DF0125A5AFBEBB507030213979057
:101363000395E0FBA3E0FCA3E0FDEB24FAFBEC34E4
:10137300FFFC8B828C838DF0125A5AFBA3125A5AAC
:10138300FCA3125A5AFD900395EBF0ECA3F0EDA3E6
:10139300F002130E900398E0FFEF24FF92AF900347
:1013A30095E0FDA3E0FEA3E0FF8D828E838FF02204
:1013B300AFF0AE83E58290039CF0EEA3F0EFA3F0D1
:1013C3009003A2A2AFE433F0C2AF900399E0FDA370
:1013D300E0FEA3E0FFED24FAFDEE34FFFE8D828EE6
:1013E300838FF074001258EEA31258EEA31258EE36
:1013F30090039CE0FDA3E0FEA3E0FF8D828E838F2C
:10140300F0125A5AFDA3125A5AFEA3125A5AFFED6A
:101413004E600302144690039CE0FDA3E0FEA3E0AC
:10142300FF900399E0FAA3E0FBA3E0FC8D828E8397
:101433008FF0EA1258EEA3EB1258EEA3EC1258EE1B
:1014430002151A90039CE0FDA3E0FEA3E0FF8D824A
:101453008E838FF0125A5AFDA3125A5AFEA3125AC0
:101463005AFF90039FEDF0EEA3F0EFA3F090039FDC
:10147300E0FDA3E0FEA3E0FFED24FAFDEE34FFFE62
:101483008D828E838FF0125A5AFDA3125A5AFEA3ED
:10149300125A5AFF7400C0E0C0E0C0E08D828E8310
:1014A3008FF012000615811581158170030214E86F
:1014B30090039FE0FDA3E0FEA3E0FFED24FAFDEE21
:1014C30034FFFE8D828E838FF0125A5AFDA3125A77
:1014D3005AFEA3125A5AFF90039FEDF0EEA3F0EFCA
:1014E300A3F002147090039FE0FDA3E0FEA3E0FFCE
:1014F300ED24FAFDEE34FFFE900399E0FAA3E0FB3E
:10150300A3E0FC8D828E838FF0EA1258EEA3EB12D8
:1015130058EEA3EC1258EE9003A2E0FFEF24FF92E3
:10152300AF22AFF0AE83E5829003A3F0EEA3F0EF1A
:10153300A3F09003A67400F0A3F0A3F09003A9A274
:10154300AFE433F0C2AF9003A3E0FDA3E0FEA3E05A
:10155300FF8D828E838FF0125A5AFDA3125A5AFEC0
:10156300A3125A5AFFED4E700302160B9003A3E029
:10157300F53AA3E0F53BA3E0F53C853A82853B834E
:10158300853CF0125A5AFAA3125A5AFBA3125A5A1A
:10159300FC9003A6EAF0EBA3F0ECA3F08A008B0126
:1015A3008C07E824FAF8E934FFF9888289838FF0FD
:1015B300125A5AF8A3125A5AF9A3125A5AFF853AE1
:1015C30082853B83853CF0E81258EEA3E91258EE7E
:1015D300A3EF1258EE8A058B068C07ED24FAFDEE75
:1015E30034FFFE8D828E838FF074001258EEA312A7
:1015F30058EEA31258EE142AFA74FF3BFB8A828B2F
:10160300838CF074FF1258EE9003A9E0FFEF24FFE0
:1016130092AF9003A6E0FDA3E0FEA3E0FF8D828ED0
:10162300838FF022AFF0AE83E5829003ADF0EEA39B
:10163300F0EFA3F0A2AFE433F53AC2AF9003AAE010
:10164300FCA3E0FDA3E0FE8C018D028E03E924FAE6
:10165300F53BEA34FFF53C8B3D9003ADE0F53EA34B
:10166300E0F53FA3E0F540853E82853F838540F06A
:10167300125A5AF9A3125A5AFAA3125A5AFF853B1D
:1016830082853C83853DF0E91258EEA3EA1258EEB9
:10169300A3EF1258EE853E82853F838540F0EC121E
:1016A30058EEA3ED1258EEA3EE1258EEE53A24FFDE
:1016B30092AF22AFF0AE83E5829003B6F0EEA3F0D3
:1016C300EFA3F09003B9A2AFE433F0C2AF9003B637
:1016D300E0FDA3E0FEA3E0FF8D828E838FF0125A1C
:1016E3005AFDA3125A5AFEA3125A5AFF9003B0E0AE
:1016F300FAA3E0FBA3E0FCC005C006C0078A828B07
:10170300838CF01200061581158115817002800308
:1017130002175F9003B6E0FDA3E0FEA3E0FF900392
:10172300B0E0FAA3E0FBA3E0FCEA24FAFAEB34FF0F
:10173300FB8A828B838CF0125A5AFAA3125A5AFBF1
:10174300A3125A5AFC8D828E838FF0EA1258EEA3AD
:10175300EB1258EEA3EC1258EE0217AD9003B3E070
:10176300FDA3E0FEA3E0FFED24FAFDEE34FFFE90BF
:1017730003B0E0FAA3E0FBA3E0FCEA24FAFAEB34BB
:10178300FFFB8A828B838CF0125A5AFAA3125A5A9D
:10179300FBA3125A5AFC8D828E838FF0EA1258EE05
:1017A300A3EB1258EEA3EC1258EE9003B0E0FDA3A6
:1017B300E0FEA3E0FF8D028E038F04EA24FAFAEB26
:1017C30034FFFB8A828B838CF074001258EEA312D1
:1017D30058EEA31258EE142DFD74FF3EFE8D828E3B
:1017E300838FF074FF1258EE9003B9E0FFEF24FFEC
:1017F30092AF22AFF0AE83E5829003BEF0EEA3F08A
:10180300EFA3F09003C47400F09003C5A2AFE433D8
:10181300F0C2AF9003BEE0FDA3E0FEA3E0FF8D8224
:101823008E838FF0125A5AFDA3125A5AFEA3125AEC
:101833005AFFED4E600302186F9003BEE0FDA3E074
:10184300FEA3E0FF9003BAE0FAA3E0FBA3E0FC8D64
:10185300828E838FF0EA1258EEA3EB1258EEA3ECBC
:101863001258EE9003C47401F00219509003BEE0C5
:10187300FDA3E0FEA3E0FF8D828E838FF0125A5A00
:10188300FDA3125A5AFEA3125A5AFF9003C1EDF058
:10189300EEA3F0EFA3F09003BDE014F0E0FF90039C
:1018A300C1E0FCA3E0FDA3E0FEEC24FAFCED34FF71
:1018B300FD8C828D838EF0125A5AFCA3125A5AFD64
:1018C300A3125A5AFEEC4D700302190BEF70030278
:1018D300190B9003C1E0FCA3E0FDA3E0FEEC24FAA6
:1018E300FCED34FFFD8C828D838EF0125A5AFCA3DB
:1018F300125A5AFDA3125A5AFE9003C1ECF0EDA3FB
:10190300F0EEA3F01F0218A19003BDEFF0E0FFEF8C
:1019130070030219509003C1E0FDA3E0FEA3E0FFB2
:10192300ED24FAFDEE34FFFE9003BAE0FAA3E0FBE8
:10193300A3E0FC8D828E838FF0EA1258EEA3EB12A4
:1019430058EEA3EC1258EE9003C47401F09003C553
:10195300E0FFEF24FF92AF9003C4E0FF8F8222E504
:10196300829003C8F0E0FF905A86E493FEC3EF9E93
:1019730040030219C5901072E0FDA3E0FEA3E0FF4F
:101983009003C8E0FCEC75F002A42DFDEE35F0FEEB
:101993008D828E838FF0125A5AFBA3125A5AFC90EF
:1019A30003C6E0F9A3E0FAE94203EA42048D828E1A
:1019B300838FF0EB1258EEA3EC1258EE75820002FF
:1019C30019C875820322E5829003CBF0E0FF905A99
:1019D30086E493FEC3EF9E4003021A3EA2AFE433B4
:1019E300FFC2AF901072E0FCA3E0FDA3E0FE900302
:1019F300CBE0FBEB75F002A42CFCED35F0FD8C8203
:101A03008D838EF0125A5AFAA3125A5AFB9003C9C5
:101A1300E0F8A3E0F9E8F4F8E9F4F9E85202E9524E
:101A2300038C828D838EF0EA1258EEA3EB1258EEEC
:101A3300EF24FF92AF758200021A4175820322756B
:101A4300820022E5829003CEF0E0FFBFFF02800315
:101A5300021A5ED2AF758200021A6175820722E50F
:101A6300829003CFF0E0FFBFFF028003021A7AC225
:101A7300AF758200021A7D75820722121F3D900303
:101A8300007400F0A3F0A3F0122396122FE67582E0
:101A93000022121A9C021A95229003D07400F012AD
:101AA30030679003D0E0FF901072E0FCA3E0FDA349
:101AB300E0FEEF75F002A42CFCED35F0FD8C828D79
:101AC300838EF0125A5AFCA3125A5AFDEC4D60034E
:101AD300021AE50F905A86E493FEC3EF9E50030269
:101AE3001AAA9003D0EFF0E0FF905A86E493FEC366
:101AF300EF9E4003021BB6901072E0FDA3E0FEA32D
:101B0300E0FF9003D0E0FCEC75F002A4FAABF0EA3E
:101B13002DFDEB3EFE8D828E838FF0125A5AF8A371
:101B2300125A5AF99003D1E8F0E9A3F08D828E831B
:101B33008FF074001258EEA31258EE900303ECF0EA
:101B4300EA247CF582EB345AF583E493FEA3E49311
:101B5300FFC003C0029003D1E0C0E0A3E0C0E012E5
:101B63001B68021B6FC006C0078C8222AE82AF8344
:101B730015811581D002D00390030374FFF09010F8
:101B830072E0F9A3E0FCA3E0FDEA29F9EB3CFC8950
:101B9300828C838DF0125A5AFAA3125A5AFBEA42E4
:101BA30006EB420789828C838DF0EE1258EEA3EF89
:101BB3001258EE22AFF0AE83E5829003D7F0EEA386
:101BC300F0EFA3F09003D7E0F53AA3E0F53BA3E0F1
:101BD300F53C9003D3E0F9A3E0FAA3E0FBA3E0FC18
:101BE30089007D007E007F00853A82853B83853CAA
:101BF300F0E81258EE9003D77401253AF0740035DB
:101C03003BA3F0E53CA3F09003D7E0F53AA3E0F55E
:101C13003BA3E0F53C8A007D007E007F00853A828D
:101C2300853B83853CF0E81258EE9003D774012579
:101C33003AF07400353BA3F0E53CA3F09003D7E002
:101C4300F53AA3E0F53BA3E0F53C8B007D007E0075
:101C53007F00853A82853B83853CF0E81258EE90FD
:101C630003D77401253AF07400353BA3F0E53CA398
:101C7300F09003D7E0FDA3E0FEA3E0FF8C017C001E
:101C83007B007A008D828E838FF0E91258EE9003E9
:101C9300D774012DF074003EA3F0EFA3F09003D7A7
:101CA300E0FDA3E0FEA3E0FF8D828E838FF022AFE1
:101CB300F0AE83E5829003DEF0EEA3F0EFA3F090A5
:101CC30003DEE0F53AA3E0F53BA3E0F53C9003DA4D
:101CD300E0F9A3E0FAA3E0FBA3E0FC89007D007E2A
:101CE300007F00853A82853B83853CF0E81258EEFD
:101CF3009003DE7401253AF07400353BA3F0E53C14
:101D0300A3F09003DEE0F53AA3E0F53BA3E0F53C56
:101D13008A007D007E007F00853A82853B83853C77
:101D2300F0E81258EE9003DE7401253AF0740035A2
:101D33003BA3F0E53CA3F09003DEE0FDA3E0FEA3AC
:101D4300E0FF8B017C007B007A008D828E838FF015
:101D5300E91258EE9003DE74012DF074003EA3F0F7
:101D6300EFA3F09003DEE0FDA3E0FEA3E0FF8D828E
:101D73008E838FF022AFF0AE83E5829003E3F0EE23
:101D8300A3F0EFA3F09003E3E0FDA3E0FEA3E0FFE5
:101D9300ED4E6003021DA0758200021DF59003E65F
:101DA3007400F09003E3E0FDA3E0FEA3E0FF9003E3
:101DB300E1E0FC9003E2E0FB9003E6E0FAC3EA9B78
:101DC3004003021DF2C003EA2DF874003EF98F03AD
:101DD300888289838BF0125A5AF8E8B50405D00338
:101DE300021DEED003758200021DF50A021DC075A7
:0B1DF300820122900303E0FF8F822298
:025A7A003000FA
:10004D009003E87400F09003E97442F09003EA74B1
:10005D0058F09003EB742DF09003EC7464F0900362
:10006D00EDF09003EEF09003EF04F09003F0746266
:10007D00F09003F17475F09003F27467F09003F350
:10008D00742DF09003F4746EF09003F504F090036A
:10009D00F67464F09003F704F09003F87400F09098
:1000AD0003FE74F2F0741EA3F09004007400F0A32C
:0100BD00F052
:101DFE00E582900402F0E0FF9003E7EFF090040319
:101E0E007401F0901156F09011577403F07404A3FE
:101E1E00F07400A3F07582057583031242EC75828F
:101E2E00FF7583FF75F0FF74FF124B0F9003E7E011
:101E3E00FF9003C67401F07400A3F08F8212196232
:101E4E0022C01D85811DE51D24FCF8E620E003025D
:101E5E001EA37582FE75830375F00012481290035F
:101E6E00E7E0FF9010387402F07400A3F090103A7F
:101E7E007488F07413A3F07400A3F0A3F08F821291
:101E8E0026DEE51D24FCF8740166FE0886078E82A8
:101E9E008F83021EEFE51D24FCF8E620E103021EEF
:101EAE00E99003E7E0FF9010387402F07400A3F09D
:101EBE0090103A7488F07413A3F07400A3F0A3F09A
:101ECE008F821226DE121F3CE51D24FCF87402667A
:101EDE00FE0886078E828F83021EEF758200758341
:101EEE0000D01D22E582900404F0E0FFC374069F2B
:101EFE005003021F31EF2F2F901F0A73021F310262
:101F0E001F1F021F22021F28021F2B021F25021F46
:101F1E002E021F31021F31021F31021F31021F31EB
:101F2E00021F31900404E0FF9003E8EFF0222290AC
:101F3E0010037400F0A3F09010057405F07404A360
:101F4E00F07400A3F09004057448F07402A3F090AE
:101F5E00064DF07480A3F090064F74B4F07409A38C
:101F6E00F022758201758300121FB4AD82AE83AF6D
:101F7E00F0A2AFE433FCC2AFED24FEF9EE34FFFA6B
:101F8E008F03901005E9F0EAA3F0EBA3F08D828E9B
:101F9E00838FF0C004122300D0049010087401F057
:101FAE00EC24FF92AF22AF83E582901009F0EFA3ED
:101FBE00F090100B7400F0A3F0A3F0901011F090BD
:101FCE001009E0FEA3E0FF90100974022EF07400D9
:101FDE003FA3F0901008E0FFEF7003022000901076
:101FEE0009E0FEA3E0FFC374109E74009F5003022D
:101FFE002019901005E0FDA3E0FEA3E0FF90100E67
:10200E00EDF0EEA3F0EFA3F002202790100E744F28
:10201E00F07406A3F07400A3F0901009E0FEA3E0A4
:10202E00FF90100EE0FBA3E0FCA3E0FD0BBB000154
:10203E000C8B828C838DF0125A5A20E703022057A4
:10204E009010117400F0022150901011E0FDED700F
:10205E000302210E90100BE0FBA3E0FCA3E0FD8B2E
:10206E003A8C3B8D3C8B008C018D02888289838A51
:10207E00F0125A5AF53DA3125A5A547FF53E90105B
:10208E000EE0F8A3E0F9A3E0FA888289838AF012C1
:10209E005A5AF53FA3125A5A547FF540A83FAA4008
:1020AE00E8253DF8EA353EFA853A82853B83853C44
:1020BE00F0E5001258EEA3EA547FC0F0C0E0125AC9
:1020CE005AD0F0548045F0D0F01258EE8B828C83AB
:1020DE008DF0125A5AFBA3125A5A547FFCC3EB9E30
:1020EE00EC9F500302215090100BE0FBA3E0FCA3E9
:1020FE00E0FD90100EEBF0ECA3F0EDA3F00221AE9C
:10210E0090100EE0FBA3E0FCA3E0FD8B828C838D90
:10211E00F0125A5AFBA3125A5A547FFCC3EB9EEC90
:10212E009F40030221AE9010117401F090100EE04A
:10213E00FBA3E0FCA3E0FD90100BEBF0ECA3F0EDA5
:10214E00A3F090100EE0FBA3E0FCA3E0FD8B008C4F
:10215E00018D028B828C838DF0125A5AFBA3125A78
:10216E005A547FFCEB28F8EC39F990100EE8F0E9A0
:10217E00A3F0EAA3F090100EE0FBA3E0FCA3E0FDB9
:10218E008B828C838DF0125A5AFBA3125A5AFCEB97
:10219E004C600302202F90100E7400F0A3F0A3F0F9
:1021AE0090100EE0FDA3E0FEA3E0FFED4E700302E3
:1021BE0022ED90100EE0FDA3E0FEA3E0FF8D828ED7
:1021CE00838FF0125A5AFDA3125A5A547FFE901062
:1021DE0009E0FCA3E0FFEDC39CFDEE9FFE90101204
:1021EE00EDF0EEA3F0C3ED9404EE94005003022242
:1021FE005390100EE0FDA3E0FEA3E0FF8D028E03D0
:10220E008F04901009E0F8A3E0F9E82AFAE93BFB05
:10221E008A3A8B3B8C3C901012E0FBA3E0FC853A93
:10222E0082853B83853CF0EB1258EEA3EC1258EE00
:10223E004301808D828E838FF0E81258EEA3E9124F
:10224E0058EE02227190100EE0FDA3E0FEA3E0FF17
:10225E000DBD00010E8D828E838FF0125A5A44806E
:10226E001258EE901008E0FFEF70030222E190107A
:10227E0005E0FDA3E0FEA3E0FF90100EE0FAA3E060
:10228E00FBA3E0FCC002C003C0048D828E838FF0DE
:10229E00120006158115811581700280030222E15C
:1022AE0090100EE0FDA3E0FEA3E0FF8D028E038FE3
:1022BE00048D828E838FF0125A5AFDA3125A5A54ED
:1022CE007FFEED2AFAEE3BFB901005EAF0EBA3F051
:1022DE00ECA3F090100EE02402F0A3E03400F0C363
:1022EE0090100EE0FDA3E0FEA3E0FF8D828E838FA3
:1022FE00F022AFF0AE83E582901014F0EEA3F0EF73
:10230E00A3F0901014E0FDA3E0FEA3E0FFED24FE89
:10231E00FAEE34FFFB8F04901017EAF0EBA3F0EC0B
:10232E00A3F090101AA2AFE433F0C2AF74FF2DFDEC
:10233E0074FF3EFE8D828E838FF0125A5A547F1296
:10234E0058EE901005E0FDA3E0FEA3E0FFC005C02F
:10235E0006C0078A828B838CF012000615811581C8
:10236E001581400302238B901017E0FDA3E0FEA31E
:10237E00E0FF901005EDF0EEA3F0EFA3F090101A31
:10238E00E0FFEF24FF92AF2290101E7400F0A3F036
:10239E00A3F0A3F022E582901028F0E0FF90102227
:1023AE00E0FDA3E0FE90102FEDF0EEA3F08F821271
:1023BE0025CCAD82AE83AFF0901029EDF0EEA3F0F8
:1023CE00EFA3F0ED4E7003022422901029E0FDA33E
:1023DE00E0FEA3E0FF74032DF51074003EF5118F9F
:1023EE0012901024E0F8A3E0F9A3E0FBA3E0FC8533
:1023FE0010828511838512F0E81258EEA3E9125867
:10240E00EEA3EB1258EEA3EC1258EE8D828E838F54
:10241E00F00225CB75820E758300121FB4AD82AE0D
:10242E0083AFF0901029EDF0EEA3F0EFA3F0ED4E98
:10243E0070030225C2901029E0FDA3E0FEA3E0FF89
:10244E0074072DFA74003EFB8F04901022E0F8A35F
:10245E00E0F98A828B838CF0E81258EEA3E91258C9
:10246E00EE74092DFA74003EFB8F04901028E0F9EB
:10247E008A828B838CF0E91258EE74032DF510745A
:10248E00003EF5118F12901024E0F8A3E0F9A3E0BE
:10249E00FBA3E0FC8510828511838512F0E81258AB
:1024AE00EEA3E91258EEA3EB1258EEA3EC1258EE7F
:1024BE008D828E838FF074001258EEA31258EEA305
:1024CE001258EE740A2DFD74003EFE8D828E838F9F
:1024DE00F074001258EEA31258EEA31258EEA31287
:1024EE0058EE90101BE0FDA3E0FEA3E0FFED4E6062
:1024FE000302251B901029E0FDA3E0FEA3E0FF9050
:10250E00101BEDF0EEA3F0EFA3F00225AE90101B22
:10251E00E0FDA3E0FEA3E0FF90102CEDF0EEA3F0A3
:10252E00EFA3F090102CE0FDA3E0FEA3E0FF8D8260
:10253E008E838FF0125A5AFDA3125A5AFEA3125AC4
:10254E005AFFED4E700302258490102CE0FDA3E09F
:10255E00FEA3E0FF8D828E838FF0125A5AFDA312D6
:10256E005A5AFEA3125A5AFF90102CEDF0EEA3F019
:10257E00EFA3F002253190102CE0FDA3E0FEA3E0C6
:10258E00FF901029E0FAA3E0FBA3E0FC8D828E837E
:10259E008FF0EA1258EEA3EB1258EEA3EC1258EE9F
:1025AE00901029E0FDA3E0FEA3E0FF8D828E838FC5
:1025BE00F00225CB75820075830075F00022E5824E
:1025CE00901031F090101BE0FDA3E0FEA3E0FF9011
:1025DE001032EDF0EEA3F0EFA3F0901031E0FF908B
:1025EE00102FE0FDA3E0FE901032E0FAA3E0FBA373
:1025FE00E0FCEA4B7003022687901032E0FAA3E06B
:10260E00FBA3E0FC74072AFA74003BFB8A828B83DF
:10261E008CF0125A5AFAA3125A5AFBEAB50506EB77
:10262E00B50602800302265A901032E0FAA3E0FBB0
:10263E00A3E0FC74092AFA74003BFB8A828B838C1C
:10264E00F0125A5AFAEAB50703022687901032E0C2
:10265E00FAA3E0FBA3E0FC8A828B838CF0125A5A19
:10266E00FAA3125A5AFBA3125A5AFC901032EAF0ED
:10267E00EBA3F0ECA3F00225F5901032E0FDA3E001
:10268E00FEA3E0FF8D828E838FF022AFF0AE83E546
:10269E0082901035F0EEA3F0EFA3F0901035E0FD30
:1026AE00A3E0FEA3E0FFED4E70030226DD90103591
:1026BE00E0FDA3E0FEA3E0FF74072DFD74003EFED7
:1026CE008D828E838FF074001258EEA31258EE2274
:1026DE00E58290103EF0C390103EE0FF901038E07F
:1026EE00FDA3E0FE90103AE0F9A3E0FAA3E0FBA30D
:1026FE00E0FC901022EDF0EEA3F0901024E9F0EA49
:10270E00A3F0EBA3F0ECA3F08F821223A3AD82AE65
:10271E0083AFF0ED4E700302272D7F0002272F7F2F
:10272E00088F8222E582901045F0901046A2AFE409
:10273E0033F0C2AF901045E0FF90103FE0FDA3E0F4
:10274E00FE901041E0F9A3E0FAA3E0FBA3E0FC90B9
:10275E001022EDF0EEA3F0901024E9F0EAA3F0EBD6
:10276E00A3F0ECA3F08F821223A3AD82AE83AFF061
:10277E00901047EDF0EEA3F0EFA3F0ED4E700302D4
:10278E0027CA901047E0FDA3E0FEA3E0FF740A2DD8
:10279E00FD74003EFE901041E0F9A3E0FAA3E0FBC9
:1027AE00A3E0FC8D828E838FF0E91258EEA3EA121D
:1027BE0058EEA3EB1258EEA3EC1258EE901046E032
:1027CE00FFEF24FF92AF901047E0FDA3E0FEA3E0E1
:1027DE00FFED4E70030227EB7F000227ED7F088F7F
:1027EE008222E58290104CF090104DA2AFE433F0AF
:1027FE00C2AF90104CE0FF90104AE0FDA3E0FE90B7
:10280E00102FEDF0EEA3F08F821225CCAD82AE83A9
:10281E00AFF090104EEDF0EEA3F0EFA3F0ED4E7092
:10282E000302284690104EE0FDA3E0FEA3E0FF8DCC
:10283E00828E838FF012269990104DE0FFEF24FFC9
:10284E0092AF90104EE0FDA3E0FEA3E0FFED4E70C0
:10285E00030228677F000228697F068F8222E582A5
:10286E00901053F09010557400F0A3F0A3F0A3F065
:10287E00901054A2AFE433F0C2AF901053E0FF902B
:10288E001051E0FDA3E0FE90102FEDF0EEA3F08FBF
:10289E00821225CCAD82AE83AFF0901059EDF0EEE2
:1028AE00A3F0EFA3F0ED4E70030228F4901059E060
:1028BE00FDA3E0FEA3E0FF74032DFD74003EFE8D2C
:1028CE00828E838FF0125A5AFDA3125A5AFEA31209
:1028DE005A5AFFA3125A5AFC901055EDF0EEA3F07F
:1028EE00EFA3F0ECA3F0901054E0FFEF24FF92AFB3
:1028FE00901055E0FCA3E0FDA3E0FEA3E0FF8C8268
:10290E008D838EF0EF2290105D7400F090105CA21B
:10291E00AFE433F0C2AF90101BE0FDA3E0FEA3E0E6
:10292E00FF90105EEDF0EEA3F0EFA3F090105DE0DF
:10293E00FF90105EE0FCA3E0FDA3E0FEEC4D700303
:10294E0002297F0F90105EE0FCA3E0FDA3E0FE8C59
:10295E00828D838EF0125A5AFCA3125A5AFDA3127C
:10296E005A5AFE90105EECF0EDA3F0EEA3F00229A1
:10297E003F90105DEFF090105CE0FFEF24FF92AF00
:10298E0090105DE0FF8F8222AF82AE83ADF0FC909F
:10299E001061EFF0EEA3F0EDA3F0ECA3F090106158
:1029AE00E0FCA3E0FDA3E0FEA3E0FF90106BECF0D3
:1029BE00EDA3F0EEA3F0EFA3F090101EE0F8A3E06D
:1029CE00F9A3E0FAA3E0FB90101EEC28F0ED39A37A
:1029DE00F0EE3AA3F0EF3BA3F090101BE0FDA3E066
:1029EE00FEA3E0FFED4E7003022FCF90101BE0FD13
:1029FE00A3E0FEA3E0FF901065EDF0EEA3F0EFA3D1
:102A0E00F09010687400F0A3F0A3F0901065E0FD54
:102A1E00A3E0FEA3E0FFED4E7003022FCF90106FE8
:102A2E007400F0A3F0A3F090106DE0FEA3E0FFEEB3
:102A3E004F6003022B8A90106CE06003022B8A9089
:102A4E001065E0FDA3E0FEA3E0FF74032DFD74000E
:102A5E003EFE8D828E838FF0125A5AFD90106BE0DF
:102A6E00FFC3ED9F5003022AAA901065E0FDA3E07C
:102A7E00FEA3E0FF74032DFD74003EFE90106BE08C
:102A8E00FC8D828E838FF0125A5AFBEBC39CFC8D09
:102A9E00828E838FF0EC1258EE022C67901065E058
:102AAE00FDA3E0FEA3E0FF74032DFD74003EFE8D3A
:102ABE00828E838FF0125A5AFDA3125A5AFEA31217
:102ACE005A5AFFA3125A5AFC90106BE0F8A3E0F981
:102ADE00A3E0FAA3E0FBC3E89DE99EEA9FEB9C40CE
:102AEE0003022B5D901065E0FDA3E0FEA3E0FF74F2
:102AFE00032DFD74003EFE8D828E838FF0125A5A86
:102B0E00F513A3125A5AF514A3125A5AF515A31215
:102B1E005A5AF51690106BE0F8A3E0FAA3E0FBA367
:102B2E00E0FCE513C398F8E5149AFAE5159BFBE56E
:102B3E00169CFC8D828E838FF0E81258EEA3EA125B
:102B4E0058EEA3EB1258EEA3EC1258EE022C67903F
:102B5E001065E0FDA3E0FEA3E0FF74032DFD7400FD
:102B6E003EFE8D828E838FF074001258EEA31258A3
:102B7E00EEA31258EEA31258EE022C67901065E0E9
:102B8E00FDA3E0FEA3E0FF74032DFD74003EFE8D59
:102B9E00828E838FF0125A5AFDA3125A5AFEA31236
:102BAE005A5AFFA3125A5AFC90106BE0F8A3E0F9A0
:102BBE00A3E0FAA3E0FBC3E89DE99EEA9FEB9C40ED
:102BCE0003022C3D901065E0FDA3E0FEA3E0FF7430
:102BDE00032DFD74003EFE8D828E838FF0125A5AA5
:102BEE00F513A3125A5AF514A3125A5AF515A31235
:102BFE005A5AF51690106BE0F8A3E0FAA3E0FBA387
:102C0E00E0FCE513C398F8E5149AFAE5159BFBE58D
:102C1E00169CFC8D828E838FF0E81258EEA3EA127A
:102C2E0058EEA3EB1258EEA3EC1258EE022C67905E
:102C3E001065E0FDA3E0FEA3E0FF74032DFD74001C
:102C4E003EFE8D828E838FF074001258EEA31258C2
:102C5E00EEA31258EEA31258EE901065E0FDA3E01D
:102C6E00FEA3E0FF74032DFD74003EFE8D828E8365
:102C7E008FF0125A5AFDA3125A5AFEED4E600302FD
:102C8E002DAC901065E0FDA3E0FEA3E0FF74052DD2
:102C9E00FD74003EFE8D828E838FF0125A5AFDA374
:102CAE00125A5AFEED4E6003022DAC901065E0FDF7
:102CBE00A3E0FEA3E0FF740A2DFD74003EFE8D829C
:102CCE008E838FF0125A5AFDA3125A5AFEA3125A2D
:102CDE005AFFA3125A5AFCED4E4F4C7003022DAC04
:102CEE00901065E0FDA3E0FEA3E0FF74072DFD74D8
:102CFE00003EFE8D828E838FF0125A5AFDA3125A19
:102D0E005AFEED4E7003022DAC901065E0FDA3E06F
:102D1E00FEA3E0FF74092DFA74003EFB8F048A8235
:102D2E008B838CF0125A5AFA74072DF974003EFBFD
:102D3E008F0489828B838CF0125A5AF9A3125A5A35
:102D4E00FB9003C6E9F0EBA3F08A82C007C006C071
:102D5E0005121962D005D006D00774032DFA74003F
:102D6E003EFB8F04740A2DFD74003EFE8D828E8311
:102D7E008FF0125A5AF9A3125A5AFDA3125A5AFE3A
:102D8E00A3125A5AFF8A828B838CF0E91258EEA353
:102D9E00ED1258EEA3EE1258EEA3EF1258EE90106D
:102DAE0065E0FDA3E0FEA3E0FF74032DFD74003E7D
:102DBE00FE8D828E838FF0125A5AFDA3125A5AFE3E
:102DCE00ED4E6003022DFE901065E0FDA3E0FEA324
:102DDE00E0FF74052DFD74003EFE8D828E838FF014
:102DEE00125A5AFDA3125A5AFEED4E7003022E27A6
:102DFE00901065E0FDA3E0FEA3E0FF74072DFD74C7
:102E0E00003EFE8D828E838FF0125A5AFDA3125A07
:102E1E005AFEED4E6003022EDC901068E0FDA3E03A
:102E2E00FEA3E0FFED4E6003022E66901065E0FDFE
:102E3E00A3E0FEA3E0FF8D828E838FF0125A5AFD1F
:102E4E00A3125A5AFEA3125A5AFF90101BEDF0EE1F
:102E5E00A3F0EFA3F0022EA4901068E0FDA3E0FE15
:102E6E00A3E0FF901065E0FAA3E0FBA3E0FC8A82EA
:102E7E008B838CF0125A5AFAA3125A5AFBA3125A87
:102E8E005AFC8D828E838FF0EA1258EEA3EB125805
:102E9E00EEA3EC1258EE901065E0FDA3E0FEA3E069
:102EAE00FF90106FEDF0EEA3F0EFA3F08D828E8306
:102EBE008FF0125A5AFDA3125A5AFEA3125A5AFFF3
:102ECE00901065EDF0EEA3F0EFA3F0022F1190102D
:102EDE0065E0FDA3E0FEA3E0FF901068EDF0EEA329
:102EEE00F0EFA3F08D828E838FF0125A5AFDA3124B
:102EFE005A5AFEA3125A5AFF901065EDF0EEA3F047
:102F0E00EFA3F090106FE0FDA3E0FEA3E0FFED4E07
:102F1E007003022A1990106FE0FDA3E0FEA3E0FFFC
:102F2E0074032DFD74003EFE8D828E838FF0125A37
:102F3E005AFDA3125A5AFEED4E6003022FB890109E
:102F4E006FE0FDA3E0FEA3E0FF74052DFD74003ECF
:102F5E00FE8D828E838FF0125A5AFDA3125A5AFE9C
:102F6E00ED4E6003022FB890106FE0FDA3E0FEA3BC
:102F7E00E0FF74092DFA74003EFB8F048A828B8366
:102F8E008CF0125A5AFA74072DFD74003EFE8D8293
:102F9E008E838FF0125A5AFDA3125A5AFE9003C610
:102FAE00EDF0EEA3F08A8212196290106FE0FDA38D
:102FBE00E0FEA3E0FF8D828E838FF0122300022AA3
:102FCE00192290101EE0FCA3E0FDA3E0FEA3E0FF9B
:102FDE008C828D838EF0EF22905A86E493FFEF75EC
:102FEE00F002A4FFAEF08F828E83121FB4AD82AEBC
:102FFE0083AFF0901072EDF0EEA3F0EFA3F0905AC5
:10300E0086E493FCEC75F002A4FCABF090033974EB
:10301E0000F090033AECF0EBA3F08D828E838FF0EC
:10302E0012068D758200124862758201124EF0757D
:10303E008202121DFE758203123E7C758204123FBF
:02304E006C22F2
:0B5A7C00D448144F4F1E993E893F058F
:1000BE009010757400F0A3F0901077F0A3F09010EC
:0E00CE0079F0A3F090107BF0A3F0A3F0A3F064
:10305000AEA27F00ACA37D008C057C00EC2EFEEDC3
:103060003FFF8E828F83229010837400F0A3F012B2
:103070003050AE82AF8390107FEEF0EFA3F090104F
:1030800075E0FCA3E0FDEEB50407EFB505030231E2
:1030900095901075E0FEA3E0FF90107FE0FCA3E0A8
:1030A000FD901081ECC39EF0ED9FA3F0901075ECA5
:1030B000F0EDA3F0901081E0FEA3E0FF901083E01C
:1030C000FCA3E0FDC374319E74339F40030230F7CC
:1030D000EE24CFFEEF34CCFF74FE2CFC741F3DFDBC
:1030E000901077E0FAA3E0FB90107774052AF07453
:1030F000003BA3F00230C4901081EEF0EFA3F090FB
:103100001083ECF0EDA3F0901081E0FEA3E0FF90BF
:10311000121BEEF0EFA3F0758205758300125909BA
:10312000AE82AF83901077E0FCA3E0FDEC2EFEEDC5
:103130003FFF8E04EFC423CCC423541F6CCC541F18
:10314000CC6CCCFD901083E0FAA3E0FB901083ECF4
:103150002AF0ED3BA3F090107774075EF07400A3A3
:10316000F0901083E0FEA3E0FFEE4F700302319574
:10317000901083E0FEA3E0FF8E828F83C007C0061D
:10318000123196D006D0077D007C008E828F838D11
:10319000F0EC12299622AF83E582901085F0EFA320
:1031A000F0901085E0FEA3E0FF901079E0FCA3E032
:1031B000FD901079EE2CF0EF3DA3F0901079E0FE39
:1031C000A3E0FFC3EE94E8EF940350030232429071
:1031D0001079E0FEA3E0FF9011E374E8F07403A31C
:1031E000F08E828F83C007C006125348AC82AD8335
:1031F000D006D00790107BE0F521A3E0F522A3E0F4
:10320000F523A3E0F5248C028D037C007D00901053
:103210007BEA2521F0EB3522A3F0EC3523A3F0ED7A
:103220003524A3F090122174E8F07403A3F08E8289
:103230008F83125995E5828583F0901079F0E5F03F
:10324000A3F022AF82AE83ADF0FC901087EFF0EEDA
:10325000A3F0EDA3F0ECA3F0901087E0FCA3E0FD59
:10326000A3E0FEA3E0FF90107BECF0EDA3F0EEA353
:10327000F0EFA3F02290107BE0FCA3E0FDA3E0FEC2
:10328000A3E0FF8C828D838EF0EF22AFF0AE83E55A
:103290008290108FF0EEA3F0EFA3F090108BE0F58A
:1032A00025A3E0F526A3E0F527A3E0F5289011E992
:1032B0007480F07451A3F07401A3F07400A3F0853E
:1032C00025828526838527F0E5281253E285822909
:1032D00085832A85F02BF52C90108FE0FDA3E0FE6E
:1032E000A3E0FF9011E9743CF07400A3F0A3F0A3F5
:1032F000F0852982852A83852BF0E52CC007C0063E
:10330000C0051253E2A982AA83ABF0FCD005D00617
:10331000D0078D828E838FF0E91258EE74012DF55F
:103320002D74003EF52E8F2F9011E97410F0740E5D
:10333000A3F07400A3F0A3F0852982852A83852B4E
:10334000F0E52CC007C006C0051253E2A882A9838D
:10335000ABF0FCD005D006D0079011F8743CF074A7
:1033600000A3F0A3F0A3F0888289838BF0ECC00760
:10337000C006C00512557CA982AA83ABF0FCD0051B
:10338000D006D007852D82852E83852FF0E912582F
:10339000EE74022DF52D74003EF52E8F2F9011F84E
:1033A0007410F0740EA3F07400A3F0A3F0852982CA
:1033B000852A83852BF0E52CC007C006C005125571
:1033C0007CA882A983ABF0FCD005D006D007852D60
:1033D00082852E83852FF0E81258EE9011F87480C4
:1033E000F07451A3F07401A3F07400A3F08525825A
:1033F0008526838527F0E528C007C006C00512553D
:103400007CA982AA83ABF0FCD005D006D00790102F
:1034100092E9F0EAA3F074052DFD74003EFE8D8262
:103420008E838FF074D01258EEA374071258EE906A
:10343000108FE0FDA3E0FEA3E0FF74052DFD7400F6
:103440003EFE8D828E838FF0125A5AFBA3125A5A77
:10345000FC9012217490F07401A3F08B828C83C0D5
:1034600007C006C005125995AB82AC83D005D006C3
:10347000D007EB4CB40100E433FBEB60030234DA19
:103480008D828E838FF0125A5AFBA3125A5AFC90E7
:1034900012217464F07400A3F08B828C83C007C087
:1034A00006C005125995E5828583F0D005D006D077
:1034B0000745F070030234E18D828E838FF0125A3B
:1034C0005AFBA3125A5AFC5303037C00EB4CB40181
:1034D00000E433FBEB70030234E17B6E7C010234C9
:1034E000E57B6D7C01901092E0F9A3E0FAC3E99BC3
:1034F000EA9C50030235D38D828E838FF0125A5A84
:10350000FBA3125A5AFC9012217490F07401A3F09C
:103510008B828C83C007C006C005125995AB82AC64
:1035200083D005D006D007EB4CB40100E433FBEBAD
:10353000600302358F8D828E838FF0125A5AFBA35F
:10354000125A5AFC9012217464F07400A3F08B821A
:103550008C83C007C006C005125995E5828583F0AB
:10356000D005D006D00745F070030235968D828EC7
:10357000838FF0125A5AFBA3125A5AFC5303037C4E
:1035800000EB4CB40100E433FBEB70030235967B97
:103590006E7C0102359A7B6D7C01901092E0F9A35C
:1035A000E0FA901092E9C39BF0EA9CA3F08D828E22
:1035B000838FF0125A5AFBA3125A5AFC0BBB00011C
:1035C0000C8D828E838FF0EB1258EEA3EC1258EE26
:1035D00002344290108FE0FDA3E0FEA3E0FF7404EC
:1035E0002DFD74003EFE8D828E838FF07400125884
:1035F000EE90108FE0FDA3E0FEA3E0FF74052DFA2E
:1036000074003EFB8F0474042DFD74003EFE8A821C
:103610008B838CF0125A5AF8A3125A5AF99012213D
:103620007490F07401A3F088828983C007C006C03B
:1036300005C004C003C002125995A882A983D00214
:10364000D003D004D005D006D007E849B40100E487
:1036500033F8E860030236C38A828B838CF0125AF7
:103660005AF8A3125A5AF99012217464F07400A304
:10367000F088828983C007C006C005C004C003C0AB
:1036800002125995E5828583F0D002D003D004D090
:1036900005D006D00745F070030236BE8A828B83C0
:1036A0008CF0125A5AF8A3125A5AF95300037900AF
:1036B000E849B40100E433F8E860030236C3790056
:1036C0000236C57901C002C003C0048D828E838F8B
:1036D000F0125A5AF8901094E8F08982C007C00698
:1036E000C005C004C003C002123859A982D002D05C
:1036F00003D004D005D006D007901092E0F8A3E0E4
:10370000FC7B00C3E899EC9BD004D003D0025003AB
:103710000238338A828B838CF0125A5AF8A3125AD9
:103720005AF99012217490F07401A3F08882898371
:10373000C007C006C005C004C003C002125995A846
:1037400082A983D002D003D004D005D006D007E8E8
:1037500049B40100E433F8E860030237C88A828B79
:10376000838CF0125A5AF8A3125A5AF99012217403
:1037700064F07400A3F088828983C007C006C00586
:10378000C004C003C002125995E5828583F0D002BF
:10379000D003D004D005D006D00745F0700302371F
:1037A000C38A828B838CF0125A5AF8A3125A5AF9A0
:1037B0005300037900E849B40100E433F8E86003FA
:1037C0000237C879000237CA7901C002C003C004B9
:1037D0008D828E838FF0125A5AF8901094E8F089F7
:1037E00082C007C006C005C004C003C00212385919
:1037F000A982D002D003D004D005D006D00789001A
:103800007900901092E0FBA3E0FC901092EBC3983B
:10381000F0EC99A3F08D828E838FF0125A5AFC0C33
:103820008D828E838FF0EC1258EED004D003D0023C
:1038300002360E90108FE0FDA3E0FEA3E0FF7403BC
:103840002DFD74003EFE901092E0FBA3E0FC8D8203
:103850008E838FF0EB1258EE22E582901095F09057
:103860001096741FF0901094E0FFBF0102800302D5
:103870003881901095E0FF901096741C2FF002385C
:10388000A7901094E0FFC374069F40030238959000
:103890001094E014F0901094E0FFEF20E003023861
:1038A000A7901096741EF0901096E0FF8F8222AFC2
:1038B000F0AE83E582901097F0EEA3F0EFA3F090C6
:1038C0001097E0FDA3E0FEA3E0FF74022DFA740060
:1038D0003EFB8F048A828B838CF0125A5AFA901224
:1038E0001DEAF07400A3F0A3F0A3F075823C758389
:1038F0000075F0007400C007C006C0051259298584
:10390000823085833185F032F533D005D006D0077B
:1039100074012DF874003EFB8F0488828B838CF039
:10392000125A5AF87C007B007A0090121DE825306C
:10393000F0EC3531A3F0EB3532A3F0EA3533A3F0E8
:1039400075823C75830075F0007400C007C006C026
:103950000512592985823085833185F032F533D0BF
:1039600005D006D0078D828E838FF0125A5AF87ACE
:10397000007B007C0090109AE82530F0EA3531A3F6
:10398000F0EB3532A3F0EC3533A3F074032DFA7469
:10399000003EFB8F048A828B838CF0125A5AFA9075
:1039A000109EEAF07400A3F074042DFD74003EFE36
:1039B0008D828E838FF0125A5AFD9010A0EDF090F8
:1039C0001097E0FDA3E0FEA3E0FF74052DFD740059
:1039D0003EFE9010A0E0FC1CEC30E703023AB98DEB
:1039E000828E838FF0125A5AFAA3125A5AFB9012FF
:1039F000217490F07401A3F08A828B83C007C00603
:103A0000C005C004125995AA82AB83D004D005D05A
:103A100006D007EA4BB40100E433FAEA6003023A45
:103A2000848D828E838FF0125A5AFAA3125A5AFB4F
:103A30009012217464F07400A3F08A828B83C00713
:103A4000C006C005C004125995E5828583F0D004F4
:103A5000D005D006D00745F07003023A7F8D828EE4
:103A6000838FF0125A5AFAA3125A5AFB5302037B5D
:103A700000EA4BB40100E433FAEA6003023A847BC3
:103A800000023A867B01901094ECF08B82C007C054
:103A900006C005C004123859AB82D004D005D00648
:103AA000D0077A0090109EE0F8A3E0F990109EEB0A
:103AB00028F0EA39A3F00239D7901097E0FDA3E08F
:103AC000FEA3E0FF74052DFD74003EFE8D828E8303
:103AD0008FF0125A5AFDA3125A5AFE9010A1EDF01F
:103AE000EEA3F09010A1E0FEA3E0FF1EBEFF011FB9
:103AF000C3EE94D0EF94075003023B8090122174E0
:103B000090F07401A3F08E828F83C007C006125913
:103B100095AC82AD83D006D007EC4DB40100E43300
:103B2000FCEC6003023B609012217464F07400A30B
:103B3000F08E828F83C007C006125995E582858377
:103B4000F0D006D00745F07003023B6774035EFCBB
:103B50007D00EC4DB40100E433FCEC7003023B67E4
:103B60007C6E7D01023B6B7C6D7D0190109EE0FAC6
:103B7000A3E0FB90109EEC2AF0ED3BA3F0023AEBA1
:103B800090109EE0FEA3E0FF90121DEEF0EFA3F078
:103B90007400A3F0A3F075828075835175F00174F1
:103BA00000125929AC82AD83AEF0FF90109AE0F874
:103BB000A3E0F9A3E0FAA3E0FB90109AEC28F0ED63
:103BC00039A3F0EE3AA3F0EF3BA3F090109AE0FC9B
:103BD000A3E0FDA3E0FEA3E0FF8C828D838EF0EFD7
:103BE0002275C60022AF83E5829010A3F0EFA3F008
:103BF000AFF174FE5FF5F143F30C4386C09010A360
:103C0000E0FEA3E0FFBE0006BF0003023C35BE019C
:103C100006BF0003023C3EBE0206BF0003023C4753
:103C2000BE0306BF0003023C50BE0406BF000302F1
:103C30003C59023C5F43C50875C23B023C5F43C52B
:103C40000975C23B023C5F43C50A75C23B023C5F3B
:103C500043C50A75C2D8023C5F43C50B75C2D82262
:103C6000E5829010A5F0E0F5C1E58630E003023C66
:103C700069E58620E103023C69AF8674FD5FF58645
:103C800022AFF0AE83E5829010A6F0EEA3F0EFA392
:103C9000F0E58630E003023C91E58620E203023C39
:103CA000919010A6E0FDA3E0FEA3E0FF8D828E833D
:103CB0008FF0E5C11258EE22AFF0AE83E58290108E
:103CC000A9F0EEA3F0EFA3F09010A9E0FDA3E0FEB1
:103CD000A3E0FF8D828E838FF0125A5A7003023D4B
:103CE0000F8D828E838FF0125A5AFCA3AD82AE8361
:103CF0009010A9EDF0EEA3F0EFA3F08C82C007C006
:103D000006C005123C60D005D006D007023CD39017
:103D100010A9EDF0EEA3F0EFA3F022AFF0AE83E533
:103D2000829010ACF0EEA3F0EFA3F09010ACE0FDA9
:103D3000A3E0FEA3E0FF8D828E838FF0C007C00654
:103D4000C005123C81D005D006D0078D828E838FAE
:103D5000F0125A5AFCA3AD82AE839010ACEDF0EE97
:103D6000A3F0EFA3F0BC0D028003023D369010AC2F
:103D7000EDF0EEA3F0EFA3F022AF83E5829010AF59
:103D8000F0EFA3F09010AFE0FEA3E0FF7C0074F032
:103D90005FFDEDC4540FFC7D008C82C007C006128D
:103DA0003E30AD82D006D0078D82C007C006123CDF
:103DB00060D006D0077C00740F5FFD8D048C82C03C
:103DC00007C006123E30AD82D006D0078D82C007F4
:103DD000C006123C60D006D00774F05EFC7D00ED9A
:103DE000C4CCC4540F6CCC540FCC6CCCFD8C82C0B2
:103DF00007C006123E30AD82D006D0078D82C007C4
:103E0000C006123C60D006D007740F5EFC7D008CAB
:103E100082C007C006123E30AD82D006D0078D8228
:103E2000C007C006123C60D006D0078E828F832266
:103E3000E5829010B1F0E0FFC374099F5003023E89
:103E40004F9010B1E0FF74302FFF8F82023E7B90C5
:103E500010B1E0FFBF0A005003023E789010B1E0BD
:103E6000FFC3740F9F5003023E789010B1E0FF74BF
:0C3E7000372FFF8F82023E7B7582FF22FD
:0600DC009010B37400F067
:103E7C00E5829010B4F0E0FF9010B2EFF09003C622
:103E8C007401F07400A3F08F8212196222C01D8598
:103E9C00811DE51D24FCF8E620E003023EE19010B4
:103EAC00B2E0FF9010387402F07400A3F090103A56
:103EBC0074E8F07403A3F07400A3F0A3F08F8212E3
:103ECC0026DEE51D24FCF8740166FE0886078E824A
:103EDC008F83023F2DE51D24FCF8E620E103023F11
:103EEC00279010B2E0FF9010387402F07400A3F029
:103EFC0090103A74E8F07403A3F07400A3F0A3F0EC
:103F0C008F821226DE123F30E51D24FCF874026607
:103F1C00FE0886078E828F83023F2D758200758383
:103F2C0000D01D229010B3E0FFBF01028003023FBE
:103F3C00559010B37400F09010B504F0A28090105E
:103F4C00B5E024FF9280023F6B9010B37401F090A7
:103F5C0010B57400F0A2809010B5E024FF9280227E
:0600E2009010B77400F05D
:103F6C00E5829010B8F0E0FF9010B6EFF09003C629
:103F7C007401F07400A3F08F8212196222C01D85A7
:103F8C00811DE51D24FCF8E620E003023FCF9010D4
:103F9C00B6E0FF9010387402F07400A3F090103A61
:103FAC00741EF07400A3F0A3F0A3F08F821226DE2F
:103FBC00E51D24FCF8740166FE0886078E828F834B
:103FCC00024019E51D24FCF8E620E10302401390A1
:103FDC0010B6E0FF9010387402F07400A3F090104B
:103FEC003A741EF07400A3F0A3F0A3F08F82122693
:103FFC00DE12401CE51D24FCF8740266FE088607E0
:10400C008E828F83024019758200758300D01D2229
:10401C008590A09010B7E0FFBF01028003024044DE
:10402C009010B77400F09010B904F0A2819010B900
:10403C00E024FF928102405A9010B77401F0901066
:10404C00B97400F0A2819010B9E024FF928122AFE4
:10405C00F0AE83E5829010BBF0EEA3F0EFA3F090EE
:10406C0010BE7400F0A3F0A3F09010BAE0FFBF02F2
:10407C000280030242DA9010BBE0FDA3E0FEA3E055
:10408C00FF8D828E838FF0125A5AFC7B000DBD007F
:10409C00010E8D828E838FF0125A5AFD7F008D0790
:1040AC007D00ED2CFCEF3BFB8C068B07BC0006BBAC
:1040BC001803024178BE0106BF1803024189BE00F5
:1040CC0006BF280302419ABE0106BF28030241AB7A
:1040DC00BE0206BF28030241BCBE0306BF28030272
:1040EC0041CDBE0006BF29030241DEBE0106BF2939
:1040FC00030241EFBE0206BF2903024200BE0306C3
:10410C00BF2903024211BE0406BF2903024222BE8C
:10411C000506BF2903024233BE0606BF290302422D
:10412C0044BE0706BF2903024255BE0806BF290339
:10413C00024266BE0006BF2A03024277BE0106BFDA
:10414C002A03024288BE0206BF2A030242AABE0309
:10415C0006BF2A03024299BE0406BF2A030242BBD1
:10416C00BE0506BF2A030242CC0242DA9010BE748E
:10417C0087F0745AA3F07480A3F00242DA9010BE58
:10418C007489F0745AA3F07480A3F00242DA901090
:10419C00BE748FF0745AA3F07480A3F00242DA90CC
:1041AC0010BE7491F0745AA3F07480A3F00242DA3A
:1041BC009010BE7493F0745AA3F07480A3F0024272
:1041CC00DA9010BE7495F0745AA3F07480A3F002C8
:1041DC0042DA9010BE7497F0745AA3F07480A3F076
:1041EC000242DA9010BE7499F0745AA3F07480A352
:1041FC00F00242DA9010BE749BF0745AA3F07480F3
:10420C00A3F00242DA9010BE749DF0745AA3F074BD
:10421C0080A3F00242DA9010BE749FF0745AA3F09F
:10422C007480A3F00242DA9010BE74A1F0745AA309
:10423C00F07480A3F00242DA9010BE74B5F0745A98
:10424C00A3F07480A3F00242DA9010BE74B7F0743D
:10425C005AA3F07480A3F00242DA9010BE74B9F045
:10426C00745AA3F07480A3F00242DA9010BE74A3C7
:10427C00F0745AA3F07480A3F00242DA9010BE746A
:10428C00A5F0745AA3F07480A3F00242DA9010BE29
:10429C0074A9F0745AA3F07480A3F00242DA90105F
:1042AC00BE74A7F0745AA3F07480A3F00242DA90A3
:1042BC0010BE74ABF0745AA3F07480A3F00242DA0F
:1042CC009010BE74ADF0745AA3F07480A3F09010EB
:1042DC00BEE0FDA3E0FEA3E0FF8D828E838FF02273
:105A87000018011805A006A00028012802280328ED
:105A9700002901290229032904290529002A012AA5
:105AA700022A032A042A052A08B009B00AB00629DF
:045AB700072908298A
:1000E8009010EE7401F09010EF74B8F0740BA3F058
:1000F8009010F17403F09010F214F09010F314F0D3
:100108009010F47406F09010F57400F09010F6F06A
:100118009010F7F09010F8F09010F9F09010FAF0B5
:100128009010FBF09010FCF09010FDF09010FEF095
:100138009010FFF0901100F0901101F0901102F072
:10014800901103F0901104F0901105F0901106F051
:10015800901107F0901108F0901109F090110AF031
:1001680090110BF090110CF090110DF090110EF011
:1001780090110FF0901110F0901111F0901112F0F1
:10018800901133F090113BF0A3F090113DF0A3F0E3
:10019800A3F0901140F0901146F09011477406F0CA
:1001A8007400A3F09011497480F0740CA3F09011BE
:1001B8004B7400F0A3F090114D74E8F07403A3F0B1
:1001C80090114F7400F0A3F0901151F0A3F090112A
:0801D80053F0A3F0901155F063
:1042EC00AF83E58290115AF0EFA3F090115C74004B
:1042FC00F090115AE0FEA3E0FFBE0505BF0302805B
:10430C00030243CA901156E0FFBF0102800302432F
:10431C00C19010EEE0FF90115DEFF0901157E0FDB1
:10432C00A3E0FEA3E0FF8D828E838FF0125A5AFD1C
:10433C009010EEEDF090115DE0FFEF700302437111
:10434C009010EEE0FFEF60030243719010C2E0FFAB
:10435C00BF020280030243D09010C1E0FF8F821293
:10436C004AEC0243D090115DE0FFEF60030243D0B2
:10437C009010EEE0FFEF70030243D09010C2E0FF0C
:10438C00BF01030243AA9010C2E0FFBF0303024324
:10439C00AA9010C2E0FFBF040280030243D0901029
:1043AC00C1E0FF9003C67401F07400A3F08F821279
:1043BC0019620243D090115C7418F00243D0901132
:1043CC005C7402F090115CE0FF8F8222AF83E58277
:1043DC00901161F0EFA3F09011637400F0901161F3
:1043EC00E0FEA3E0FFC3EF940350030247F0C37455
:1043FC00189E74039F50030247F0EE240A83F58243
:10440C00EE241D83F583E473466392C1F62542675F
:10441C009BCFEC09385572759ABEE3082D5281A6D4
:10442C00CB444444444445454545454546464646AB
:10443C004646464647474747474790115EE0FDA32F
:10444C00E0FEA3E0FF9010C3E0FC8D828E838FF022
:10445C00EC1258EE02480A90115EE0FDA3E0FEA3B8
:10446C00E0FF90030774C4F07410A3F07400A3F081
:10447C0090030A7410F07400A3F08D828E838FF079
:10448C0012040002480A90115EE0FDA3E0FEA3E0D6
:10449C00FF90030774D4F07410A3F07400A3F09091
:1044AC00030A7410F07400A3F08D828E838FF012C7
:1044BC00040002480A90115EE0FDA3E0FEA3E0FFB9
:1044CC009010E4E0F9A3E0FAA3E0FBA3E0FC8D82FA
:1044DC008E838FF0E91258EEA3EA1258EEA3EB127A
:1044EC0058EEA3EC1258EE02480A90115EE0FDA3C0
:1044FC00E0FEA3E0FF90030774E8F07410A3F074DF
:10450C0000A3F090030A7406F07400A3F08D828E61
:10451C00838FF012040002480A90115EE0FDA3E0C4
:10452C00FEA3E0FF9010EEE0FC8D828E838FF0EC0A
:10453C001258EE02480A90115EE0FDA3E0FEA3E0E3
:10454C00FF9010EFE0FBA3E0FC8D828E838FF0EBED
:10455C001258EEA3EC1258EE02480A90115EE0FDE0
:10456C00A3E0FEA3E0FF9010F1E0FC7B00900307BA
:10457C0074F2F07410A3F07400A3F090030AECF042
:10458C00EBA3F08D828E838FF012040002480A9008
:10459C00115EE0FDA3E0FEA3E0FF901111E0FC7BB7
:1045AC00009003077412F07411A3F07400A3F09040
:1045BC00030AECF0EBA3F08D828E838FF0120400D3
:1045CC0002480A90115EE0FDA3E0FEA3E0FF90110B
:1045DC0031E0FC8D828E838FF0EC1258EE02480A8B
:1045EC0090115EE0FDA3E0FEA3E0FF901132E0FC31
:1045FC008D828E838FF0EC1258EE02480A90115E79
:10460C00E0FDA3E0FEA3E0FF9003077433F0741108
:10461C00A3F07400A3F090030A7406F07400A3F0E6
:10462C008D828E838FF012040002480A90115EE096
:10463C00FDA3E0FEA3E0FF901139E0FC8D828E8398
:10464C008FF0EC1258EE02480A90115EE0FDA3E0E8
:10465C00FEA3E0FF90113AE0FC8D828E838FF0EC8C
:10466C001258EE02480A02480A90115EE0FDA3E0DF
:10467C00FEA3E0FF90113BE0FBA3E0FC8D828E8358
:10468C008FF0EB1258EEA3EC1258EE02480A901180
:10469C005EE0FDA3E0FEA3E0FF901146E0FC7B0092
:1046AC008D828E838FF0EC1258EEA3EB1258EE0233
:1046BC00480A90115EE0FDA3E0FEA3E0FF901147D5
:1046CC00E0FBA3E0FC8D828E838FF0EB1258EEA3FF
:1046DC00EC1258EE02480A90115EE0FDA3E0FEA336
:1046EC00E0FF901149E0FBA3E0FC8D828E838FF0FC
:1046FC00EB1258EEA3EC1258EE02480A90115EE051
:10470C00FDA3E0FEA3E0FF90114BE0FBA3E0FC8DCA
:10471C00828E838FF0EB1258EEA3EC1258EE024807
:10472C000A90115EE0FDA3E0FEA3E0FF90114DE0C6
:10473C00FBA3E0FC8D828E838FF0EB1258EEA3EC82
:10474C001258EE02480A90115EE0FDA3E0FEA3E0D1
:10475C00FF9003077440F07411A3F07400A3F09061
:10476C00030A7406F07400A3F08D828E838FF0120E
:10477C00040002480A90115EE0FDA3E0FEA3E0FFF6
:10478C0090114FE0FBA3E0FC8D828E838FF0EB1237
:10479C0058EEA3EC1258EE02480A90115EE0FDA30D
:1047AC00E0FEA3E0FF901151E0FBA3E0FC8D828EB4
:1047BC00838FF0EB1258EEA3EC1258EE02480A90DD
:1047CC00115EE0FDA3E0FEA3E0FF901153E0FBA31C
:1047DC00E0FC8D828E838FF0EB1258EEA3EC125816
:1047EC00EE02480A901161E0FEA3E0FFC3EE9424B0
:1047FC00EF9400500302480A9011637402F0901178
:10480C0063E0FF8F8222AFF0AE83E582901164F0FB
:10481C00EEA3F0EFA3F09010C2E0FFEF60030248AC
:10482C005E901164E0FDA3E0FEA3E0FFED4E70038B
:10483C00024855901164E0FDA3E0FEA3E0FF901147
:10484C003DEDF0EEA3F0EFA3F0124AD47582000216
:10485C00486175821122E582901167F0E0FF90109B
:10486C00C1EFF09010C27400F09010C37404F0907B
:10487C0003397400F090033A7410F07400A3F075CF
:10488C0082C475831075F00012068D900339740084
:10489C00F090033A7410F07400A3F07582D4758311
:1048AC001075F00012068D9010E47400F0A3F0A3C4
:1048BC00F0A3F0901131F0901132F090113974078F
:1048CC00F090113A7400F022C01D85811DE5812401
:1048DC000AF581E51D24FCF8E620E0030249EE9080
:1048EC0010EEE0FFEF70030249DBA91D09901131B6
:1048FC00E0FFA707AF1D0FEF04F9901132E0FEA700
:10490C000674022FFE7D007C409003077433F07414
:10491C0011A3F07400A3F090030A7406F07400A3C2
:10492C00F08E828D838CF0C007120400D0077408BF
:10493C002FF9901139E0FEA70674092FF990113A5E
:10494C00E0FEA7069010C1E0FE901168EFF0740035
:10495C00A3F07440A3F08E82124AF0E58270030239
:10496C0049DB9010C27406F090113DE0FDA3E0FE0F
:10497C00A3E0FFED4E70030249DB90113DE0FDA377
:10498C00E0FEA3E0FF8D828E838FF0125A5AFDA3B6
:10499C00125A5AFEED4E70030249DB90113DE0FDB8
:1049AC00A3E0FEA3E0FF8D828E838FF0125A5AFD96
:1049BC00A3125A5AFE9010C2E0FFC006C00512495D
:1049CC00D00249D7C005C0068F8222D005D006E59B
:1049DC001D24FCF8740166FE0886078E828F830204
:1049EC004A4DE51D24FCF8E620E303024A47124A2F
:1049FC0053E5826003024A347582BB75835A75F0A5
:104A0C0080123CB89010C1E0FF9010387408F0741C
:104A1C0000A3F090103A742CF07401A3F07400A36E
:104A2C00F0A3F08F821226DEE51D24FCF8740866D4
:104A3C00FE0886078E828F83024A4D75820075832D
:104A4C0000851D81D01D22AF8EBF0103024A64BFB9
:104A5C000203024A87024A969010C27401F0901029
:104A6C00C1E0FF9003C67401F07400A3F08F8212B2
:104A7C00196275AA00758E00024A9C9010C27402CD
:104A8C00F075AA00758E00024A9C758200024AD30A
:104A9C0090113DE0FDA3E0FEA3E0FF8D828E838F9D
:104AAC00F0125A5AFDA3125A5AFE9010C2E0FFC0DF
:104ABC0006C005124AC5024ACCC005C0068F822228
:104ACC00D005D0067582012275AA019010C1E0FFB5
:104ADC009003C67408F07400A3F08F82121962223E
:104AEC007582002275AA029010C1E0FF9003C67473
:104AFC0008F07400A3F08F8212196275820022757F
:034B0C0082002202
:105ABB0047415020626C6520636B65636B65723D7B
:065ACB003D3D3D0D0A0007
:1001E000901170740AF09011717400F09011727493
:1001F00043F09011737468F09011747461F0901171
:10020000757472F09011767461F09011777463F0E8
:100210009011787474F09011797465F090117A747B
:1002200072F090117B7469F090117C7473F09011EE
:100230007D04F090117E7469F090117F7463F090EA
:1002400011807420F09011817431F090118274004B
:10025000F0901183740AF09011847400F09011856D
:100260007443F09011867468F09011877461F09077
:1002700011887472F09011897461F090118A74631E
:10028000F090118B7474F090118C7465F090118D56
:100290007472F090118E7469F090118F7473F090F5
:1002A000119004F09011917469F09011927463F0C0
:1002B0009011937420F09011947432F09011957411
:1002C00000F09011967402F0901197748FF0745AA8
:1002D000A3F07480A3F090119A23F090119B740006
:1002E000F0A3F090119D74DDF0745AA3F07480A314
:1002F000F09011A07402F09011A17495F0745AA3BB
:10030000F07480A3F09011A423F09011A57400F074
:10031000A3F09011A77470F07411A3F07400A3F00F
:100320009011AA7402F09011AB74D9F0745AA3F032
:100330007480A3F09011AE7403F09011AF7400F0CC
:10034000A3F09011B17471F07411A3F07400A3F0D4
:100350009011B47402F09011B57499F0745AA3F02E
:100360007480A3F09011B823F09011B97400F0A339
:10037000F09011BB7472F07411A3F07400A3F090AC
:1003800011BE7402F09011BF74DBF0745AA3F074C4
:1003900080A3F09011C27403F09011C37400F0A315
:0F03A000F09011C57484F07411A3F07400A3F0F1
:104B0F00AF82AE83ADF0FC9011C8EFF0EEA3F0EDE5
:104B1F00A3F0ECA3F09011CC7400F09011C8E0FC5E
:104B2F00A3E0FDA3E0FEA3E0FFEC20E003024B694E
:104B3F009011D97405F07400A3F09011DB74D1F0CB
:104B4F00745AA3F07480A3F075829675831175F073
:104B5F000012529BE5829011CCF09011CCE0FF8FA8
:104B6F008222C01D85811D7F00E51D24FBF8860470
:104B7F0008860508860674042CFC74003DFD8C82A3
:104B8F008D838EF0125A5AFCEC20E403024BA4756D
:104B9F008208024D43E51D24F3F8E6084670030230
:104BAF004BB775820B024D43E51D24FBF8860408B5
:104BBF0086050886068C828D838EF0125A5AFCBCAD
:104BCF0002028003024D27E51D24FBF886040886A8
:104BDF00050886060CBC00010D8C828D838EF012A9
:104BEF005A5AFCA3125A5AFDA3125A5AFE8C828D9E
:104BFF00838EF0125A5AFB7A000CBC00010D8C8286
:104C0F008D838EF0125A5AFC7E008C067C00EC2BA2
:104C1F00FBEE3AFABBD106BADD03024C38BBD30622
:104C2F00BADD03024CA1024D0AC007E51D24F5F8B9
:104C3F0086040886050886068C828D838EF07401A3
:104C4F001258EEE51D24F8F8860408860508860636
:104C5F00E51D24FBF8860208860308860774072AD9
:104C6F00FA74003BFB8A828B838FF0125A5AFAA395
:104C7F00125A5AFBA3125A5AFF8A828B838FF01251
:104C8F005A5AFA8C828D838EF0EA1258EED00702B0
:104C9F004D41C007E51D24F5F886040886050886F2
:104CAF00068C828D838EF074011258EEE51D24F868
:104CBF00F88604088605088606E51D24FBF886029B
:104CCF0008860308860774072AFA74003BFB8A825A
:104CDF008B838FF0125A5AFAA3125A5AFBA3125A05
:104CEF005AFF8A828B838FF0125A5AFA8C828D83E5
:104CFF008EF0EA1258EED007024D41E51D24F5F86B
:104D0F0086040886050886068C828D838EF07400D3
:104D1F001258EE7F0A024D41E51D24F5F88604086E
:104D2F0086050886068C828D838EF074001258EEED
:104D3F007F018F82D01D22C01D85811D05810581B8
:104D4F0005817F00E51D24FBF8860408860508868B
:104D5F000674042CFC74003DFD8C828D838EF01242
:104D6F005A5AFCEC20E503024D7F758208024EEA89
:104D7F00E51D24FBF886040886050886068C828DBF
:104D8F00838EF0125A5AFCBC02028003024EE6E5F3
:104D9F001D24FBF886040886050886060CBC000156
:104DAF000D8C828D838EF0125A5AFCA3125A5AFD23
:104DBF00A3125A5AFE8C828D838EF0125A5AFB7AA6
:104DCF00000CBC00010D8C828D838EF0125A5AFCA0
:104DDF007E008C067C00EC2BFBEE3AFABB0206BA87
:104DEF002903024EE8BBD106BADD03024E09BBD33D
:104DFF0006BADD03024E75024EE1EF6003024EE884
:104E0F00C007E51D24FBF88604088605088606748E
:104E1F00072CFC74003DFD8C828D838EF0A81D083D
:104E2F00125A5AF6A3125A5A08F6A3125A5A08F6E9
:104E3F00E51D24F8F886020886030886078A828B08
:104E4F00838FF0125A5AFEA81D088682088683089F
:104E5F0086F0EE1258EE8A828B838FF0125A5AF533
:104E6F00C0D007024EE8EF6003024EE8C007E51D11
:104E7F0024FBF8860408860508860674072CFC7444
:104E8F00003DFD8C828D838EF0A81D08125A5AF6B4
:104E9F00A3125A5A08F6A3125A5A08F6E51D24F817
:104EAF00F886020886030886078A828B838FF012A2
:104EBF005A5AFEA81D0886820886830886F0EE12CD
:104ECF0058EE8A828B838FF0125A5AF5C2D007029E
:104EDF004EE87F0A024EE87F018F82851D81D01D2B
:014EEF0022A0
:105AD100714B464D0000DDDDD1DDD3DD02D75A80AB
:0803AF009011CD7400F0A3F0E1
:104EF000E5829011D0F0E0FF9011CFEFF09011CD4E
:104F00007400F0A3F09003C604F07400A3F08F8245
:104F100012196222C01D85811DE51D24FCF8E620C2
:104F2000E003024F5EC39011CFE0FF901038740190
:104F3000F07400A3F090103A7464F07400A3F0A32E
:104F4000F0A3F08F821226DE124F67E51D24FCF8D5
:104F5000740166FE0886078E828F83024F64758215
:104F600000758300D01D22900067E0FCA3E0FDA344
:104F7000E0FEA3E0FF9011D1ECF0EDA3F09011D68C
:104F80007400F09011D8F0AF8EBF0303024F9EBFA4
:104F90000403024FA7BF050302512202529A758EE5
:104FA0000075AA0002529A9011D1E0F517A3E0F51E
:104FB000189011D6E0FD9011CDE0FBA3E0FC8D012F
:104FC0007A00C3E99BEA64808CF063F08095F0403E
:104FD0000302510F9011D77400F0ED75F006A4FB99
:104FE000ACF0E0FAC0058B8274002CF583E0F8A3E6
:104FF000E0F9A3E0FDEA75F00AA428F8E935F0F934
:105000009011D3E8F0E9A3F0EDA3F008B80001098E
:10501000888289838DF0125A5AF8A3125A5AF9A33A
:10502000125A5AFD888289838DF0125A5AF8A312B7
:105030005A5AF9851782851883E493FDA3E493FFF8
:10504000E8B50506E9B507028005D0050250ECD0A9
:1050500005C0059011D87401F08B0674002CFF8EEA
:10506000828F83A3A3A3E0F9A3E0FEA3E0FF8982DC
:105070008E838FF0125A5AF9A3125A5AFE90007278
:10508000E0F519A3E0F51A900065E0FDA3E0FFC08C
:1050900006C005C004C003C002C0017434C0E0C033
:1050A00019C01A7471C0E07400C0E07400C0E074EC
:1050B00074C0E07400C0E07400C0E09011D3E0C0A0
:1050C000E0A3E0C0E0A3E0C0E01250CF0250D8C09F
:1050D00001C0068D828F8322E58124F4F581D00101
:1050E000D002D003D004D005D006D0059011D8E06E
:1050F000FFBF01030251000ABA04005003024FE44B
:105100009011D8E0FFBF010302510F0D024FB6907E
:1051100011D8E0FFBF0102800302529A75AA04026F
:10512000529A9011D1E0F519A3E0F51A9011D6E04A
:10513000FD9011CDE0FBA3E0FC8D017A00C3E99B5B
:10514000EA64808CF063F08095F0400302528A900C
:1051500011D77400F0ED75F006A4FBACF0E0FAC0D6
:10516000058B8274002CF583E0F8A3E0F9A3E0FD41
:10517000EA75F00AA428F8E935F0F99011D3E8F0BF
:10518000E9A3F0EDA3F008B8000109888289838DB6
:10519000F0125A5AF8A3125A5AF9A3125A5AFD8811
:1051A0008289838DF0125A5AF8A3125A5AF9851936
:1051B00082851A83E493FDA3E493FFE8B50506E92D
:1051C000B507028005D005025267D005C0059011D1
:1051D000D87401F08B0674002CFF8E828F83A3A3FA
:1051E000A3E0F9A3E0FEA3E0FF740229F974003EF6
:1051F000FE89828E838FF0125A5AF9A3125A5AFEF0
:10520000900072E0F51BA3E0F51C900071E0F5172B
:10521000900065E0FDA3E0FFC006C005C004C00328
:10522000C002C001C01BC01CC0177474C0E0740071
:10523000C0E07400C0E09011D3E0C0E0A3E0C0E0A3
:10524000A3E0C0E012524A025253C001C0068D8250
:105250008F8322E58124F7F581D001D002D003D0DD
:1052600004D005D006D0059011D8E0FFBF0103029D
:10527000527B0ABA0400500302515F9011D8E0FF3C
:10528000BF010302528A0D0251319011D8E0FFBFD5
:105290000102800302529A75AA0522AFF0AE83E59F
:1052A000829011DEF0EEA3F0EFA3F09011CDE0FEBE
:1052B000A3E0FF9011E1EEF0EFA3F0BE0A05BF00FE
:1052C0000280030252CC7582000253479011E1E044
:1052D000FEA3E0FF90121BEEF0EFA3F075820675BF
:1052E0008300125909AE82AF838E0474002FFD90A3
:1052F00011DEE0F9A3E0FAA3E0FB8C828D83E9F0F4
:10530000EAA3F0EBA3F074002FFF74032EFE7400E9
:105310003FFF9011DBE0FBA3E0FCA3E0FD8E828F5A
:1053200083EBF0ECA3F0EDA3F075AA039011CDE0B0
:10533000FEA3E0FF8FB08EB79011CD74012EF074F4
:10534000003FA3F075820122AF83E5829011E5F062
:10535000EFA3F09011E7E4F0A3F09011E3E0FEA3D7
:10536000E0FF7D109011E5E0FBA3E0FC339200EC40
:10537000CB25E0CB33FC9011E5EBF0ECA3F09011E2
:10538000E7E0FBA3E0CB25E0CB33FC9011E7EBF0AB
:10539000ECA3F03000129011E7E0FBA3E0FC9011C9
:1053A000E774014BF0ECA3F09011E7E0FBA3E0FC05
:1053B000C3EB9EEC9F401D9011E7EBC39EF0EC9F6A
:1053C000A3F09011E5E0FBA3E0FC9011E574014B24
:1053D000F0ECA3F0DD8E9011E5E0FEA3E08E82F507
:1053E0008322AF82AE83ADF0FC9011EDEFF0EEA31F
:1053F000F0EDA3F0ECA3F09011F1E4F09011EDE0EA
:10540000FCA3E0FDA3E0FEA3E0FF7B009011E9E038
:10541000F53AA3E0F53BA3E0F53CA3E0F53D2354CA
:1054200001FA7074C003E53A253AF8E53B33F9E533
:105430003C33FAE53D33FB9011E9E8F0E9A3F0EAEB
:10544000A3F0EBA3F09011E9E0F53AA3E0F53BA35C
:10545000E0F53CA3E0F53DC3EC953AED953BEE95C8
:105460003CEF953DD0035027E53DC313F53DE53CAA
:1054700013F53CE53B13F53BE53A13F53A9011E99A
:10548000F0E53BA3F0E53CA3F0E53DA3F080090B7C
:105490009011F1EBF002540C9011F1E0FF9011ED3E
:1054A000E0FBA3E0FCA3E0FDA3E0FE9011E9E0F542
:1054B0003AA3E0F53BA3E0F53CA3E0F53DC3EB9553
:1054C0003AEC953BED953CEE953D40179011EDEB98
:1054D000C3953AF0EC953BA3F0ED953CA3F0EE9527
:1054E0003DA3F09011E9E0FBA3E0FCA3E0FDA3E005
:1054F000C313FEED13FDEC13FCEB13FB9011E9F06D
:10550000ECA3F0EDA3F0EEA3F08F061FEE708E90EB
:1055100011EDE0FCA3E0FDA3E0FEA3E08C828D830F
:105520008EF022AFF0AE83E5829011F5F0EEA3F09D
:10553000EFA3F09011F5E0FDA3E0FEA3E0FF9011D2
:10554000F2E0FAA3E0FBA3E0FC8D3A8E3B8F3C8AAD
:10555000828B838CF0125A5AF9A3AA82AB83853AC4
:1055600082853B83853CF0E91258EEA385823A851B
:10557000833BE970DA8D828E838FF022AF82AE8317
:10558000ADF0FC9011FCEFF0EEA3F0EDA3F0ECA376
:10559000F0901200E4F0A3F0A3F0A3F09011F8E073
:1055A000FCA3E0FDA3E0FEA3E0FF753A209011FC10
:1055B000E0F8A3E0F9A3E0FAA3E0FB339201E828C6
:1055C000F8E933F9EA33FAEB33FB9011FCE8F0E940
:1055D000A3F0EAA3F0EBA3F0901200E0F8A3E0F947
:1055E000A3E0FAA3E0FBE828F8E933F9EA33FAEBA1
:1055F00033FB901200E8F0E9A3F0EAA3F0EBA3F08C
:1056000030011E901200E0F8A3E0F9A3E0FAA3E055
:10561000FB901200740148F0E9A3F0EAA3F0EBA3B9
:10562000F0901200E0F8A3E0F9A3E0FAA3E0FBC3D6
:10563000E89CE99DEA9EEB9F4031901200E8C39CF4
:10564000F0E99DA3F0EA9EA3F0EB9FA3F09011FC7C
:10565000E0F8A3E0F9A3E0FAA3E0FB9011FC7401E9
:1056600048F0E9A3F0EAA3F0EBA3F0D53A028003F7
:105670000255AD9011FCE0FCA3E0FDA3E0FEA3E029
:075680008C828D838EF02265
:06004100E478FFF6D8FD93
:10568700AC82AD83901205E0FEA3E0FFBE0003608D
:10569700121F0F901204E08C828D831258EEA3DE46
:1056A700FADFF88C828D8322AF83E58290120BF0AC
:1056B700EFA3F0901207E0FDA3E0FEA3E0FF901236
:1056C7000AE0F5347B00EB2DF8E43EF98F02C003C6
:1056D70090120BE0FBA3E0FC853435753600901281
:1056E70021E535F0E536A3F08B828C83C007C00631
:1056F700C005C002C001C000125995AB82AC83D06F
:1057070000D001D002D005D006D00774302BFB881B
:105717008289838AF01258EEC374B98BF063F080E4
:1057270095F0D0035015888289838AF0125A5A243B
:1057370007FC888289838AF01258EE90120BE0FAF0
:10574700A3E0FC9011E3E535F0E536A3F08A828CFF
:1057570083C007C006C005C003125348E58285838E
:10576700F0D003D005D006D00790120BF0E5F0A3D8
:10577700F00B90120BE0FAA3E0FC4A60030256CD4F
:10578700EB1490120DF0EB2DFBE43EFC8F028B82A5
:105797008C838AF0E41258EE7C0090120DE0FBC374
:1057A700EC64808BF063F08095F05050EC2DF5376A
:1057B700E43EF5388F398537828538838539F0128D
:1057C7005A5AF535EB2DF8E43EF98F02C005C006AD
:1057D700C007888289838AF0125A5A8537828538AA
:1057E700838539F01258EE888289838AF0E535126D
:1057F70058EE0C1BD007D006D00580A322AF83E557
:1058070082901212F0EFA3F0901212E0FEA3E0FFD5
:1058170030E737901211E0FDBD0A2F90120EE0FB22
:10582700A3E0FCA3E0FD8B828C838DF0742D1258CE
:10583700EE90120E74012BF0E43CA3F0EDA3F09070
:105847001212C3E49EF0E49FA3F0901212E0FEA3AD
:10585700E0FF90120EE0FBA3E0FCA3E0FD90121125
:10586700E0FA901207EBF0ECA3F0EDA3F090120A28
:10587700EAF08E828F830256AFAFF0AE83E5829057
:105887001217F0EEA3F0EFA3F0901217E0FDA3E0DC
:10589700FEA3E0FF8D028E038F048A828B838CF038
:1058A700125A5A60070ABA00F10B80EE901214E000
:1058B700F53AA3E0F53BA3E0F53C853A82853B83C7
:1058C700853CF0125A5AF9A385823A85833B8A822E
:1058D7008B838CF0E91258EEA3AA82AB83E970DAC6
:1058E7008D828E838FF02220F71130F6138883A8DC
:1058F7008220F509F6A8837583002280FEF280F5E1
:10590700F022AA83AB828BF090121BE0A4F8A9F0D7
:105917008AF0E0A429F98BF0A3E0A429F583888213
:105927002222A882A983AAF0FB88F090121DE0A486
:10593700FCADF089F0E0A42DFDE435F0FE88F0A37E
:10594700E0A42DFDE5F03EFEE433FF89F0E0A42E50
:10595700FEE5F03FFF88F0A3E0A42EFEE5F03FFF51
:105967008AF090121DE0A42EFEE5F03FFF8BF0E0D9
:10597700A42FFF8AF0A3E0A42FFF89F0A3E0A42FB0
:10598700FF88F0A3E0A42F8EF08D838C8222AF8353
:10599700E582901223F0EFA3F0901225E4F0901225
:1059A70023E0FEA3E0FF7D00901221E0FBA3E0FCD3
:1059B700235401FA7037ECCB25E0CB33FC9012214E
:1059C700EBF0ECA3F0901221E0FBA3E0FCC3EE9B0D
:1059D700EF9C5011ECC313CB13CBFC901221EBF0CF
:1059E700ECA3F080080D901225EDF080BB901225F6
:1059F700E0FF901223E0FDA3E0FE901221E0FBA35D
:105A0700E0FCC3ED9BEE9C400B901223EDC39BF093
:105A1700EE9CA3F0901221E0FDA3E0C313CD13CDBC
:105A2700FE901221EDF0EEA3F08F061FEE70C390EB
:105A37001223E0FEA3E08E82F58322AA82AB8312B3
:105A47005A5A6003A380F8C3E5829AF582E5839BDF
:035A5700F58322B2
:10000600E58124FCC3C8C0E0C082E608467006E568
:10001600824583601218E58296F58208E58396424A
